:100000000C942A000C940C010C9447000C944700AB
:100010000C9447000C9447000C9447000C94470044
:100020000C9447000C9447000C9447000C94310347
:100030000C9447000C9447000C9447000C94470024
:100040000C9447000C9447000C9447000C94470014
:100050000C94470011241FBECFE5D8E0DEBFCDBF12
:1000600010E0A0E6B0E0E4E2FBE002C005900D92F3
:10007000A437B107D9F720E0A4E7B0E001C01D9292
:10008000A438B207E1F70E9490020C9490050C94FA
:1000900000008FEF8ABB87BB84E184BB8BEF81BB01
:1000A00008958830E8F4613069F44BB321E030E022
:1000B000B90102C0660F771F8A95E2F7CB01842B46
:1000C0008BBB08954BB321E030E0B90102C0660F4D
:1000D000771F8A95E2F7CB01809584238BBB089527
:1000E00098EF980F9830E8F4613069F448B321E054
:1000F00030E0B90102C0660F771F9A95E2F7CB0195
:10010000842B88BB089548B321E030E0B90102C0D8
:10011000660F771F9A95E2F7CB018095842388BB01
:10012000089590EF980F9830E8F4613069F445B382
:1001300021E030E0B90102C0660F771F9A95E2F71F
:10014000CB01842B85BB089545B321E030E0B90194
:1001500002C0660F771F9A95E2F7CB018095842342
:1001600085BB089588518830E0F4613069F442B36A
:1001700021E030E0B90102C0660F771F8A95E2F7EF
:10018000CB01842B82BB089542B321E030E0B9015A
:1001900002C0660F771F8A95E2F7CB018095842312
:1001A00082BB089585B7816085BF85B7826085BFB2
:1001B0008BB78F7B8BBF8AB780648ABF08958BB75C
:1001C00080648BBF0895909383008093820008958C
:1001D000813039F485B7816085BF85B78D7F85BF54
:1001E0000895873039F485B7816085BF85B782600F
:1001F00085BF0895843039F485B78E7F85BF85B774
:10020000826085BF08958A3031F485B78E7F85BFBF
:1002100085B78D7F85BF08951F920F920FB60F92FD
:1002200011242F933F934F935F936F937F938F93FB
:100230009F93AF93BF93EF93FF93E0918200F09170
:1002400083000995FF91EF91BF91AF919F918F919D
:100250007F916F915F914F913F912F910F900FBEC2
:100260000F901F9018958FB780688FBF0895CF9318
:10027000DF93C82FD0E0682F617080E00E945100AA
:10028000BE0175956795617081E00E945100BE01C5
:100290007595679575956795617082E00E9451002C
:1002A000BE017595679575956795759567956170AC
:1002B00083E00E945100BE0175956795759567951D
:1002C0007595679575956795617084E00E945100FA
:1002D000BE01759567957595679575956795759543
:1002E000679575956795617085E00E945100BE0124
:1002F000062E672F000C661F770B000C661F771FFA
:10030000617086E00E945100CC0FCD2FCC1FDD0B19
:100310006C2F617087E00E94510061E08CE10E94C7
:10032000510083EF91E00197F1F700C0000060E019
:100330008CE10E94510083EF91E00197F1F700C03A
:100340000000DF91CF910895CF93C82F60E088E13E
:100350000E94510060E089E10E9451008C2F0E94B0
:100360003701CF910895CF93C82F61E088E10E94B3
:10037000510060E089E10E9451008C2F0E943701FA
:10038000CF91089581E00E94A40183EF91E001974D
:10039000F1F700C0000008958DE292E20197F1F7B5
:1003A00000C0000088E30E94A40189EF90E001975B
:1003B000F1F700C000008CE00E94A40189EF90E0FA
:1003C0000197F1F700C000000E94C20186E00E9480
:1003D000A40183EF91E00197F1F700C0000060E015
:1003E0008CE10E9451000895813029F480E8860F45
:1003F0000E94A4010895823021F480EC860F0E94AF
:10040000A40108950F931F93CF938C01C0E003C004
:100410000E94B301CF5FF801EC0FF11D80818111C3
:10042000F7CFCF911F910F91089580917E00909109
:100430007F00019690937F0080937E0008958091C5
:100440007C0090917D00009739F484E00E94E800E0
:1004500080E00E94240350C08130910531F587E08F
:100460000E94E8000E94260360E070E070917E0028
:10047000680F711D072E000C880B990B0E946F04EA
:100480002DEB37E346E059E30E94FB0460937800CC
:100490007093790080937A0090937B000E942003F0
:1004A00010927F0010927E0027C0029729F584E009
:1004B0000E94E8000E94260360E070E070917E00D8
:1004C000680F711D072E000C880B990B0E946F049A
:1004D0002DEB37E346E059E30E94FB046093740080
:1004E0007093750080937600909377000E942003AC
:1004F00010927F0010927E0080917C0090917D0090
:100500008230910534F4019690937D0080937C00B5
:10051000089581E090E090937D0080937C000895A1
:1005200085E192E00E942C038FE192E00E94E300BB
:100530000E9449000E94D2000E94CC010E94200328
:100540000E9428030E94DF000E9433018FE185BDD5
:100550008FE783BD8090780090907900A0907A001A
:10056000B0907B0020E030E048EC52E4C501B401DB
:100570000E94FB046B017C01209174003091750096
:100580004091760050917700C501B4010E94590353
:100590004B015C019B01AC01C701B6010E94C50380
:1005A0000E9437047B01A501940160E070E080E8BF
:1005B0009FE30E94C5030E943704EB0180E80E947C
:1005C000A40180E690E00E940202CE0164E670E0A1
:1005D0000E94680580E3860F0E94B3010AE010E0E4
:1005E000CE01B8010E946805C82FCB01B8010E9456
:1005F0006805805D0E94B30180E38C0F0E94B30107
:1006000088E690E00E94020260E082E00E94F4012D
:100610008CE690E00E940202C701B8010E946805C2
:10062000C82F80E3860F0E94B30180E38C0F0E94E5
:10063000B30180E20E94B30185E20E94B3018ACF38
:1006400085E083BF12BE089582BF089582B70895E2
:1006500089B7816089BF089590938100809380005D
:1006600008951F920F920FB60F9211242F933F936C
:100670004F935F936F937F938F939F93AF93BF93AA
:10068000EF93FF93E0918000F09181000995FF9135
:10069000EF91BF91AF919F918F917F916F915F91FA
:1006A0004F913F912F910F900FBE0F901F90189573
:1006B0005058BB27AA270E9470030C94C1040E94C3
:1006C000B30438F00E94BA0420F039F49F3F19F4C3
:1006D00026F40C94B0040EF4E095E7FB0C94AA0405
:1006E000E92F0E94D20458F3BA17620773078407F0
:1006F000950720F079F4A6F50C94F4040EF4E09537
:100700000B2EBA2FA02D0B01B90190010C01CA01CB
:10071000A0011124FF27591B99F0593F50F4503E76
:1007200068F11A16F040A22F232F342F4427585F68
:10073000F3CF469537952795A795F0405395C9F780
:100740007EF41F16BA0B620B730B840BBAF0915038
:10075000A1F0FF0FBB1F661F771F881FC2F70EC0D7
:10076000BA0F621F731F841F48F4879577956795AA
:10077000B795F7959E3F08F0B0CF9395880F08F096
:100780009927EE0F9795879508950E94D9030C94A9
:10079000C1040E94BA0458F00E94B30440F029F446
:1007A0005F3F29F00C94AA0451110C94F5040C94A9
:1007B000B0040E94D20468F39923B1F3552391F356
:1007C000951B550BBB27AA2762177307840738F0C0
:1007D0009F5F5F4F220F331F441FAA1FA9F335D01D
:1007E0000E2E3AF0E0E832D091505040E695001CD1
:1007F000CAF72BD0FE2F29D0660F771F881FBB1F8B
:10080000261737074807AB07B0E809F0BB0B802D68
:10081000BF01FF2793585F4F3AF09E3F510578F094
:100820000C94AA040C94F5045F3FE4F3983ED4F3CF
:10083000869577956795B795F7959F5FC9F7880F68
:10084000911D9695879597F90895E1E0660F771FBA
:10085000881FBB1F621773078407BA0720F0621B4B
:10086000730B840BBA0BEE1F88F7E09508950E9476
:100870003E046894B1110C94F50408950E94DA04C2
:1008800088F09F5798F0B92F9927B751B0F0E1F051
:10089000660F771F881F991F1AF0BA95C9F714C001
:1008A000B13091F00E94F404B1E008950C94F40486
:1008B000672F782F8827B85F39F0B93FCCF386953A
:1008C00077956795B395D9F73EF490958095709597
:1008D00061957F4F8F4F9F4F0895E89409C097FB14
:1008E0003EF490958095709561957F4F8F4F9F4F07
:1008F0009923A9F0F92F96E9BB279395F69587954B
:1009000077956795B795F111F8CFFAF4BB0F11F40D
:1009100060FF1BC06F5F7F4F8F4F9F4F16C08823B4
:1009200011F096E911C0772321F09EE8872F762FEA
:1009300005C0662371F096E8862F70E060E02AF02B
:100940009A95660F771F881FDAF7880F9695879517
:1009500097F9089597F99F6780E870E060E008953F
:100960009FEF80EC089500240A94161617061806C7
:100970000906089500240A941216130614060506A3
:100980000895092E0394000C11F4882352F0BB0F34
:1009900040F4BF2B11F460FF04C06F5F7F4F8F4F97
:1009A0009F4F089557FD9058440F551F59F05F3FD2
:1009B00071F04795880F97FB991F61F09F3F79F081
:1009C00087950895121613061406551FF2CF469503
:1009D000F1DF08C0161617061806991FF1CF869585
:1009E0007105610508940895E894BB276627772769
:1009F000CB0197F908950E940E050C94C1040E9442
:100A0000B30438F00E94BA0420F0952311F00C943E
:100A1000AA040C94B00411240C94F5040E94D2048E
:100A200070F3959FC1F3950F50E0551F629FF00141
:100A3000729FBB27F00DB11D639FAA27F00DB11D5A
:100A4000AA1F649F6627B00DA11D661F829F2227E3
:100A5000B00DA11D621F739FB00DA11D621F839F6A
:100A6000A00D611D221F749F3327A00D611D231F40
:100A7000849F600D211D822F762F6A2F11249F578E
:100A800050409AF0F1F088234AF0EE0FFF1FBB1F91
:100A9000661F771F881F91505040A9F79E3F510550
:100AA00080F00C94AA040C94F5045F3FE4F3983EA4
:100AB000D4F3869577956795B795F795E7959F5FFA
:100AC000C1F7FE2B880F911D9695879597F908958C
:100AD00097FB072E16F4009407D077FD09D00E94EB
:100AE0007C0507FC05D03EF4909581959F4F0895B5
:100AF000709561957F4F0895AA1BBB1B51E107C0FC
:100B0000AA1FBB1FA617B70710F0A61BB70B881F9D
:100B1000991F5A95A9F780959095BC01CD0108952C
:040B2000F894FFCF77
:100B240046726571203D200020485A00447574794E
:040B3400203D200040
:00000001FF
